{
  "contractName": "Banking",
  "abi": [
    {
      "inputs": [],
      "name": "owner",
      "outputs": [
        {
          "internalType": "address",
          "name": "",
          "type": "address"
        }
      ],
      "stateMutability": "view",
      "type": "function"
    },
    {
      "inputs": [],
      "name": "deposit",
      "outputs": [
        {
          "internalType": "uint256",
          "name": "",
          "type": "uint256"
        }
      ],
      "stateMutability": "payable",
      "type": "function"
    },
    {
      "inputs": [
        {
          "internalType": "uint256",
          "name": "withdrawAmount",
          "type": "uint256"
        }
      ],
      "name": "withdraw",
      "outputs": [
        {
          "internalType": "uint256",
          "name": "remainingBalance",
          "type": "uint256"
        }
      ],
      "stateMutability": "nonpayable",
      "type": "function"
    },
    {
      "inputs": [],
      "name": "balance",
      "outputs": [
        {
          "internalType": "uint256",
          "name": "",
          "type": "uint256"
        }
      ],
      "stateMutability": "view",
      "type": "function"
    }
  ],
  "bytecode": "0x608060405234801561001057600080fd5b506104e7806100206000396000f3fe60806040526004361061003f5760003560e01c80632e1a7d4d146100445780638da5cb5b14610081578063b69ef8a8146100ac578063d0e30db0146100d7575b600080fd5b34801561005057600080fd5b5061006b60048036038101906100669190610367565b6100f5565b60405161007891906103a3565b60405180910390f35b34801561008d57600080fd5b50610096610222565b6040516100a391906103ff565b60405180910390f35b3480156100b857600080fd5b506100c1610248565b6040516100ce91906103a3565b60405180910390f35b6100df61028f565b6040516100ec91906103a3565b60405180910390f35b6000600160003373ffffffffffffffffffffffffffffffffffffffff1673ffffffffffffffffffffffffffffffffffffffff1681526020019081526020016000205482116101db5781600160003373ffffffffffffffffffffffffffffffffffffffff1673ffffffffffffffffffffffffffffffffffffffff168152602001908152602001600020600082825461018c9190610449565b925050819055503373ffffffffffffffffffffffffffffffffffffffff166108fc839081150290604051600060405180830381858888f193505050501580156101d9573d6000803e3d6000fd5b505b600160003373ffffffffffffffffffffffffffffffffffffffff1673ffffffffffffffffffffffffffffffffffffffff168152602001908152602001600020549050919050565b600260009054906101000a900473ffffffffffffffffffffffffffffffffffffffff1681565b6000600160003373ffffffffffffffffffffffffffffffffffffffff1673ffffffffffffffffffffffffffffffffffffffff16815260200190815260200160002054905090565b600034600160003373ffffffffffffffffffffffffffffffffffffffff1673ffffffffffffffffffffffffffffffffffffffff16815260200190815260200160002060008282546102e0919061047d565b92505081905550600160003373ffffffffffffffffffffffffffffffffffffffff1673ffffffffffffffffffffffffffffffffffffffff16815260200190815260200160002054905090565b600080fd5b6000819050919050565b61034481610331565b811461034f57600080fd5b50565b6000813590506103618161033b565b92915050565b60006020828403121561037d5761037c61032c565b5b600061038b84828501610352565b91505092915050565b61039d81610331565b82525050565b60006020820190506103b86000830184610394565b92915050565b600073ffffffffffffffffffffffffffffffffffffffff82169050919050565b60006103e9826103be565b9050919050565b6103f9816103de565b82525050565b600060208201905061041460008301846103f0565b92915050565b7f4e487b7100000000000000000000000000000000000000000000000000000000600052601160045260246000fd5b600061045482610331565b915061045f83610331565b92508282039050818111156104775761047661041a565b5b92915050565b600061048882610331565b915061049383610331565b92508282019050808211156104ab576104aa61041a565b5b9291505056fea2646970667358221220e2c5e24bb56e517b6b0c24b29265aa36de402ee5f719d804f1cf0a91bf26b12164736f6c63430008110033",
  "immutableReferences": {},
  "source": "//SPDX-License-Identifier: UNLICENSED\r\npragma solidity >0.5.0;\r\n\r\ncontract Banking {\r\nuint8 private clientCount;\r\nmapping (address => uint) private balances;\r\naddress public owner;\r\n/*\r\n    constructor() payable {\r\n        require(msg.value == 30 ether, \"30 ether initial funding required\");\r\n        owner = msg.sender;\r\n        clientCount = 0;\r\n    }\r\n*/\r\n    function deposit() public payable returns (uint) {\r\n        balances[msg.sender] += msg.value;\r\n        return balances[msg.sender];\r\n    }\r\n\r\n\r\n    function withdraw(uint withdrawAmount) public returns (uint remainingBalance) {\r\n        if (withdrawAmount <= balances[msg.sender]) {\r\n            balances[msg.sender] -= withdrawAmount;\r\n            payable(msg.sender).transfer(withdrawAmount);\r\n        }\r\n        return balances[msg.sender];\r\n    }\r\n\r\n\r\n   function balance() public view returns (uint) {\r\n        return balances[msg.sender];\r\n    }\r\n\r\n}",
  "sourcePath": "C:\\Users\\s_b_k\\Assignment 2 blockchain\\contracts\\Banking.sol",
  "compiler": {
    "name": "solc",
    "version": "0.8.17+commit.8df45f5f.Emscripten.clang"
  },
  "schemaVersion": "3.4.10",
  "updatedAt": "2022-10-29T13:49:10.163Z",
  "devdoc": {
    "kind": "dev",
    "methods": {},
    "version": 1
  },
  "userdoc": {
    "kind": "user",
    "methods": {},
    "version": 1
  }
}